:2000000012C077CA18951895AECA189518951895189518951895189518951895189518958C
:200020001895189518958FE58DBFC0E2E8EE4E2E84E08EBFD4E0F3E05F2EEEEFF3E0A0E60A
:20004000B0E0A89584B7082E877F84BF88E1992781BD91BD88278D933197E9F766248FE0F4
:2000600084BB8FEF87BB8FEF81BB82E085BD89B7806489BF789485B78C7F85BF82E085BD7C
:2000800086E886B980E087B9379AE0E0F0E0AEE8B0E091E02EDC00918E000F3F09F001C0EA
:2000A00049D9AC9A0027A3E3B0E08C9184FB0EF401E040E0041709F001C03CD980E080939F
:2000C000B60080E08093B70080919900806480939900809199008062809399008091990024
:2000E0008F7E8093990080919900877F80939900809199008B7F80939900809199008D7FD5
:200100008093990080E090E0AAE9B0E08D939C9380E080939C0080919900806880939900A4
:2001200080E08093A00080E08093A20080E08093A10080E08093A30080E080939F0086E0F5
:2001400090E08A939A93A4DA2296A6E8B0E00C93A6E8B0E08C918E5F8C93ADE9B0E08C9168
:200160008F5F8C9307B1007F066007B922DBA4EAB0E08D939C93A4EAB0E00D911C910A3AFE
:2001800050E0150714F009F001C00DC0A4EAB0E00D911C914AEA50E0041B150BA4EAB0E05E
:2001A0000D931C9306C080E090E0A4EAB0E08D939C93A4EAB0E00D911C91083A52E01507F4
:2001C00014F009F001C006C088EA92E0A4EAB0E08D939C93A4EAB0E00D911C9144E450E089
:2001E0006EDAA4EAB0E04D935C93A4EAB0E00D911C91003050E015070CF401C006C080E0FE
:2002000090E0A4EAB0E08D939C93A4EAB0E00D911C91083050E0150714F009F001C006C090
:2002200088E090E0A4EAB0E08D939C930027A9E9B0E08C9187FB0EF401E040E0041781E012
:2002400009F080E08F930027A9E9B0E08C9185FB0EF401E040E0041781E009F080E09F9135
:200260008923882309F4A9C0A1E8B0E00D911C91003050E0150781E014F009F080E08F9301
:2002800084E690E08A939A9303DA2296002F112F053050E0150780E014F009F081E09F91C7
:2002A0008923882309F47FC0A6E8B0E00D911127A2EBB0E04D915527041B150BAAEBB0E0DC
:2002C0000D931C93AAEBB0E00D911C91013050E0150714F009F001C00CC0A2EBB0E00D919D
:2002E000112741E050E0040F151FA4EAB0E00D931C93AAEBB0E00D911C91003050E01507D5
:2003000081E014F009F080E08F930091B200003080E010F009F081E09F918923882309F44C
:200320000CC0A2EBB0E00D91112741E050E0041B150BA4EAB0E00D931C93AAEBB0E00D913E
:200340001C91013050E0150709F02CC0E6EAF0E039DAA4EAB0E0EE0C000FE794DD92EC924C
:20036000A3E8B0E00D911C91003050E0150781E009F080E08F9300918500043081E008F01C
:2003800080E09F918923882309F40CC0A2EBB0E00D91112741E050E0041B150BA4EAB0E00C
:2003A0000D931C930AC0E6EAF0E00CDAA4EAB0E0EE0C000FE794DD92EC92A4EAB0E00D9153
:2003C0001C91003050E015070CF401C006C080E090E0A4EAB0E08D939C93A4EAB0E00D9174
:2003E0001C91083050E0150714F009F001C006C088E090E0A4EAB0E08D939C93E4EAF0E065
:20040000D190E0808FEFE7FE8827F82E082F1BDAA6EAB0E049DA8091A4008093B20002E018
:2004200010E0A4EAB0E04D915C9183D9A4EAB0E00D931C93A4EAB0E08D919C91A0EBB0E096
:200440008D939C93A4EAB0E00D911C9142E050E0A6D9A4EAB0E00D931C93A0EBB0E00D91ED
:200460001C91A4EAB0E04D915C91040F151FA0EBB0E00D931C93A0EBB0E08D919C91A0E649
:20048000B0E08D939C930027A9E9B0E08C9187FB0EF401E041E0041709F0C6C00091A000C6
:2004A000003009F00AC00091B200043010F009F001C003C081E08093A0000091A0000130DF
:2004C00009F008C00091B200043008F003C082E08093A0000091A000023009F095C00091D2
:2004E000B200043010F009F001C08EC081E08093A000A1EAB0E08C918F5F8C934091A30041
:200500000091A100041780E010F009F081E08F930091A100063081E008F080E09F918923B5
:20052000882309F471C0A1EAB0E08C91A1E9B0E08D9388278C9306E010E0A1E9B0E04D91D4
:200540005C91041B150BA1E9B0E00D931C93A1E9B0E00D911C9142E050E021D9A1E9B0E03B
:200560000D931C93A1E9B0E00D911C9141E050E0041B150BA1E9B0E00D931C9302E010E0FC
:20058000A1E9B0E04D915C91D4D8AAEBB0E00D931C93A8E6B0E00D911C91AAEBB0E04D91EA
:2005A0005C91040F151FA8E6B0E00D931C93A1E9B0E00D911C9141E050E0041B150BA1E91B
:2005C000B0E00D931C9302E010E0A1E9B0E04D915C91AFD8A1E9B0E00D931C93A8E6B0E077
:2005E0000D911C91A1E9B0E04D915C91040F151FA8E6B0E00D931C93A8E6B0E08D919C91AE
:20060000AAE6B0E08D939C930091B200013008F006C0809199008F7D8093990005C0809101
:20062000990080628093990007B1007F076007B9C0D8AEEAB0E08D939C93AEEAB0E00D9160
:200640001C910A3A50E0150714F009F001C00DC0AEEAB0E00D911C914AEA50E0041B150BBC
:20066000AEEAB0E00D931C9306C080E090E0AEEAB0E08D939C93AEEAB0E00D911C91083A41
:2006800052E0150714F009F001C006C088EA92E0AEEAB0E08D939C93AEEAB0E00D911C91BA
:2006A00044E450E00CD8AEEAB0E04D935C93AEEAB0E00D911C91003050E015070CF401C057
:2006C00006C080E090E0AEEAB0E08D939C93AEEAB0E00D911C91083050E0150714F009F019
:2006E00001C006C088E090E0AEEAB0E08D939C930027A9E9B0E08C9187FB0EF401E040E039
:20070000041781E009F080E08F930027A9E9B0E08C9186FB0EF401E040E0041781E009F083
:2007200080E09F918923882309F4A9C0A1E8B0E00D911C91003050E0150780E00CF081E0CF
:200740008F9384E690E08A939A93A2D72296002F112F053050E0150780E014F009F081E074
:200760009F918923882309F480C0A6E8B0E00D911127A4EBB0E04D915527041B150BAAEB74
:20078000B0E00D931C93AAEBB0E00D911C91013050E0150714F009F001C00CC0A4EBB0E0E4
:2007A0000D91112741E050E0040F151FAEEAB0E00D931C93AAEBB0E00D911C91003050E084
:2007C000150781E014F009F080E08F930091B400003080E010F009F081E09F918923882367
:2007E00009F40CC0A4EBB0E00D91112741E050E0041B150BAEEAB0E00D931C93AAEBB0E00F
:200800000D911C91013050E0150709F02DC0EAEAF0E0D8D7AEEAB0E0EE0C000FE794DD92BC
:20082000EC92A3E8B0E00D911C91003050E0150781E009F080E08F9300918500093080E0CD
:2008400010F009F081E09F918923882309F40CC0A4EBB0E00D91112741E050E0041B150B69
:20086000AEEAB0E00D931C930AC0EAEAF0E0AAD7AEEAB0E0EE0C000FE794DD92EC92AEEAE1
:20088000B0E00D911C91003050E015070CF401C006C080E090E0AEEAB0E08D939C93AEEA9B
:2008A000B0E00D911C91083050E0150714F009F001C006C088E090E0AEEAB0E08D939C9306
:2008C000EEEAF0E0D190E0808FEFE7FE8827F82E082FB9D7AAEAB0E0E7D78091AE008093FC
:2008E000B40002E010E0AEEAB0E04D915C9121D7AEEAB0E00D931C93AEEAB0E08D919C919D
:20090000A0EBB0E08D939C93AEEAB0E00D911C9142E050E044D7AEEAB0E00D931C93A0EB8B
:20092000B0E00D911C91AEEAB0E04D915C91040F151FA0EBB0E00D931C93A0EBB0E08D91FF
:200940009C91A6E7B0E08D939C930027A9E9B0E08C9187FB0EF401E041E0041709F0D6C068
:200960000091A200003009F00AC00091B400043010F009F001C003C081E08093A2000091B4
:20098000A200013009F008C00091B400043008F003C082E08093A2000091A200023009F01A
:2009A00095C00091B400043010F009F001C08EC081E08093A200A3EAB0E08C918F5F8C9304
:2009C0004091A1000091A300041780E010F009F081E08F930091A300063081E008F080E057
:2009E0009F918923882309F471C0A3EAB0E08C91A1E9B0E08D9388278C9306E010E0A1E9A0
:200A0000B0E04D915C91041B150BA1E9B0E00D931C93A1E9B0E00D911C9142E050E0BFD687
:200A2000A1E9B0E00D931C93A1E9B0E00D911C9141E050E0041B150BA1E9B0E00D931C93EF
:200A400002E010E0A1E9B0E04D915C9172D6AAEBB0E00D931C93A8E6B0E00D911C91AAEB25
:200A6000B0E04D915C91040F151FA8E6B0E00D931C93A1E9B0E00D911C9141E050E0041B92
:200A8000150BA1E9B0E00D931C9302E010E0A1E9B0E04D915C914DD6A1E9B0E00D931C938A
:200AA000A8E6B0E00D911C91A1E9B0E04D915C91040F151FA8E6B0E00D931C93A8E6B0E016
:200AC0008D919C91AAE6B0E08D939C930091B400013008F006C0809199008F7B80939900C8
:200AE00005C0809199008064809399004091B2000091B400041710F009F001C004C08BE02B
:200B00008093850003C082E0809385000027A9E9B0E08C9187FB0EF401E040E0041709F081
:200B200072C280918500809387000091850040918100040FA5E8B0E00C9300918600409132
:200B40008300040FA6E8B0E00C9380E090E0A7E8B0E0AD90BB24AEE5B0E0AA0CBB1CAA0DD0
:200B6000BB1D8D939C9302E010E0A6E8B0E04D915527DFD5A1E9B0E00D931C93A5E8B0E0CA
:200B8000AD90BB24AEE5B0E0AA0CBB1CAA0DBB1D0D911C91A1E9B0E04D915C91042B152B5B
:200BA000A5E8B0E0AD90BB24AEE5B0E0AA0CBB1CAA0DBB1D0D931C9300918500023009F02D
:200BC000DBC0A2EBB0E00D911127A6E8B0E04D915527041B150BA8E8B0E00D931C93A8E8D1
:200BE000B0E00D911C910E3F5FEF150780E00CF081E08F93A8E8B0E00D911C91013050E0B8
:200C0000150781E014F009F080E09F918923882309F4B2C0A8E8B0E00D911C91013050E038
:200C2000150709F041C0A3E8B0E00D911C91013050E0150709F023C081E090E0A1E8B0E0F5
:200C40008D939C9384E690E08A939A9321D52296002F112F023350E0150714F009F001C0C5
:200C600007C08FEF9FEFA3E8B0E08D939C9306C080E090E0A3E8B0E08D939C9315C0A3E8D7
:200C8000B0E00D911C91003050E0150709F00CC081E090E0A1E8B0E08D939C938FEF9FEFF3
:200CA000A3E8B0E08D939C93A8E8B0E00D911C91003050E0150709F006C081E090E0A1E8CA
:200CC000B0E08D939C93A8E8B0E00D911C910F3F5FEF150709F006C081E090E0A1E8B0E069
:200CE0008D939C93A8E8B0E00D911C910E3F5FEF150709F041C0A3E8B0E00D911C910F3FD5
:200D00005FEF150709F023C081E090E0A1E8B0E08D939C9384E690E08A939A93B9D42296EB
:200D2000002F112F023350E0150714F009F001C007C081E090E0A3E8B0E08D939C9306C03D
:200D400080E090E0A3E8B0E08D939C9315C0A3E8B0E00D911C91003050E0150709F00CC0DD
:200D600081E090E0A1E8B0E08D939C9381E090E0A3E8B0E08D939C93009185000B3009F0B5
:200D8000DBC0A4EBB0E00D911127A6E8B0E04D915527041B150BA8E8B0E00D931C93A8E80D
:200DA000B0E00D911C910E3F5FEF150780E00CF081E08F93A8E8B0E00D911C91013050E0F6
:200DC000150781E014F009F080E09F918923882309F4B2C0A8E8B0E00D911C91013050E077
:200DE000150709F041C0A3E8B0E00D911C91013050E0150709F023C08FEF9FEFA1E8B0E0F9
:200E00008D939C9384E690E08A939A9341D42296002F112F023350E0150714F009F001C0E4
:200E200007C08FEF9FEFA3E8B0E08D939C9306C080E090E0A3E8B0E08D939C9315C0A3E815
:200E4000B0E00D911C91003050E0150709F00CC08FEF9FEFA1E8B0E08D939C938FEF9FEFF6
:200E6000A3E8B0E08D939C93A8E8B0E00D911C91003050E0150709F006C08FEF9FEFA1E8CD
:200E8000B0E08D939C93A8E8B0E00D911C910F3F5FEF150709F006C08FEF9FEFA1E8B0E06C
:200EA0008D939C93A8E8B0E00D911C910E3F5FEF150709F041C0A3E8B0E00D911C910F3F13
:200EC0005FEF150709F023C08FEF9FEFA1E8B0E08D939C9384E690E08A939A93D9D32296D0
:200EE000002F112F023350E0150714F009F001C007C081E090E0A3E8B0E08D939C9306C07C
:200F000080E090E0A3E8B0E08D939C9315C0A3E8B0E00D911C91003050E0150709F00CC01B
:200F20008FEF9FEFA1E8B0E08D939C9381E090E0A3E8B0E08D939C93009185000C3008F4B4
:200F400004C0E1E0F0E00DD4ECC000918500013010F009F004C0E1E0F0E003D4E2C0009110
:200F60008600093008F406C08FEF9FEFA3E8B0E08D939C9300918600003010F009F006C074
:200F800081E090E0A3E8B0E08D939C934091A3000091A100041710F009F001C005C08091C5
:200FA000A10080939F0004C08091A30080939F0000919F00023008F003C084E690E0E0D30A
:200FC00000919F00023009F003C080E590E0D8D300919F00033009F003C08CE390E0D0D3D2
:200FE00000919F00043009F003C088E290E0C8D300919F00043010F009F001C003C084E116
:2010000090E0BED38DC0AAE9B0E00D911C9141E050E0040F151FAAE9B0E00D931C93ACE975
:20102000B0E08C918F5F8C9300919C000B3008F403C080E080939C0000919C00063010F05D
:2010400009F001C026C00027A9E9B0E08C9185FB0EF401E040E0041709F006C080E090E05D
:20106000A0E6B0E08D939C930027A9E9B0E08C9186FB0EF401E040E0041709F006C080E0E7
:2010800090E0A6E7B0E08D939C9382E390E078D303C082E390E074D3AAE9B0E00D911C9107
:2010A000063450E0150708F43BC0E1E0F0E059D380E090E0A8E6B0E08D939C9380E090E0E9
:2010C000AAE6B0E08D939C930027A9E9B0E08C9185FB0EF401E040E0041781E009F080E0E3
:2010E0008F930027A9E9B0E08C9186FB0EF401E040E0041781E009F080E09F918923882388
:2011000009F409C085E090E08A939A93C1D22296A1EAB0E00C93809199008F778093990089
:201120001CC880E090E0A0E6B0E08D939C9380E090E0A6E7B0E08D939C93009185000C3008
:2011400008F41BC0A5E8B0E08C9181508C9380E090E0A1E8B0E08D939C9380E090E0A3E8FB
:20116000B0E08D939C930091B6000A3008F005C0A6EBB0E08C918F5F8C93009185000130C0
:2011800010F009F01BC0A5E8B0E08C918F5F8C9380E090E0A1E8B0E08D939C9380E090E02C
:2011A000A3E8B0E08D939C930091B7000A3008F005C0A7EBB0E08C918F5F8C930AE010E060
:2011C000A6EBB0E04D915527041B150BA8E8B0E00D931C9302E010E0A8E8B0E04D915C9129
:2011E000A8D2A8E8B0E00D931C93A8E8B0E00D911C9141E050E0041B150BA8E8B0E00D934B
:201200001C930FEF13E0A8E8B0E04D915C91041B150BA8E8B0E00D931C93A8E8B0E00D91D7
:201220001C91003050E0150714F009F001C009C0A8E8B0E08D919C91A0E6B0E08D939C932E
:2012400006C080E090E0A0E6B0E08D939C930AE010E0A7EBB0E04D915527041B150BA8E86E
:20126000B0E00D931C9302E010E0A8E8B0E04D915C915FD2A8E8B0E00D931C93A8E8B0E012
:201280000D911C9141E050E0041B150BA8E8B0E00D931C930FEF13E0A8E8B0E04D915C9128
:2012A000041B150BA8E8B0E00D931C93A8E8B0E00D911C91003050E0150714F009F001C0DB
:2012C00008C0A8E8B0E08D919C91A6E7B0E08D939C930091B6000A3009F005C0E3E0F0E09D
:2012E00040D20FD0EBC60091B7000A3009F005C0E3E0F0E036D205D0E1C6E1E0F0E031D261
:201300001EC7882785BD80E085BB80E082BB80E088BB37988A98929A8BB780648BBF85B74E
:201320008F7D806A85BF88958A9A9298379A82E085BD089581E080938E0000918E000C3099
:2013400010F009F015C08FEF93E0AEE8B0E0AD90BB24AEE5B0E0AA0CBB1CAA0DBB1D8D932D
:201360009C93AEE8B0E08C918F5F8C9308F4E5CF88EE93E005D281E090E0AEEAB0E08D9365
:201380009C93AEEAB0E00D911C910C3050E0150714F009F033C081E080938E0000918E0012
:2013A0000C3010F009F015C080E090E0AEE8B0E0AD90BB24AEE5B0E0AA0CBB1CAA0DBB1DD2
:2013C0008D939C93AEE8B0E08C918F5F8C9308F4E5CF8FEF93E0AEEAB0E0AD90BC90AEE589
:2013E000B0E0AA0CBB1CAA0DBB1D8D939C9384E690E0C6D1AEEAB0E044D1C3CF81E090E0E1
:20140000AEEAB0E08D939C93AEEAB0E00D911C910C3050E0150714F009F03EC081E08093EB
:201420008E0000918E000C3010F009F02EC0AEEAB0E00D911C9141E050E0041B150BAFE842
:20144000B0E00D931C9302E010E0AFE8B0E04D915C916FD1AFE8B0E00D931C93AFE8B0E00C
:201460008D919C91AEE8B0E0AD90BB24AEE5B0E0AA0CBB1CAA0DBB1D8D939C93AEE8B0E02B
:201480008C918F5F8C9308F4CCCF84E690E078D1AEEAB0E0F6D0B8CF81E090E0AEEAB0E0FA
:2014A0008D939C93AEEAB0E00D911C910C3050E0150714F009F012C080E090E0AEEAB0E01B
:2014C000AD90BC90AEE5B0E0AA0CBB1CAA0DBB1D8D939C93AEEAB0E0D4D0E4CF80E0809303
:2014E0008E00E0E0F0E0AEE8B0E091E07BE7F0D108950F921F922F923F924F925F927F92B0
:20150000AF92BF920F931F932F933F934F935F936F937F938F939F93AF93BF93CF93DF93AD
:20152000EF93FF938FB78F938BB78F7B8BBF8F918FBFFF91EF91DF91CF91BF91AF919F918B
:201540008F917F916F915F914F913F912F911F910F91BF90AF907F905F904F903F902F90B2
:201560001F900F9018950F921F922F923F924F925F927F92AF92BF920F931F932F933F932F
:201580004F935F936F937F938F939F93AF93BF93CF93DF93EF93FF938FB78F93A6E9B0E00C
:2015A0008C918F5F8C93009196000D3009F003C081E0809396000091960040E0040FA5E9EF
:2015C000B0E00C9380E082BB80E088BB80E085BB00919600013009F002C0C49801C0C49A6E
:2015E000C39AC398C29AC298A5E9B0E0AD90BB24AEE5B0E0AA0CBB1CAA0DBB1D8C91A7E957
:20160000B0E08C93009197004FE00423A8E9B0E00C93A7E9B0E08C91807F8C93A7E9B0E062
:201620008C9182BBA8E9B0E08C9185BBA5E9B0E0AD90BB24AEE5B0E0AA0CBB1CAA0DBB1D59
:2016400011968C9188BB8F918FBFFF91EF91DF91CF91BF91AF919F918F917F916F915F9155
:201660004F913F912F911F910F91BF90AF907F905F904F903F902F901F900F901895F8942A
:20168000FFCFED91FC91EF5FFF4FFC93EE9308954091D0005091D1000DE815E30BD049E1E3
:2016A00056E3040F151F0093D0001093D1004981588125C008D073D000FC10D0089503D0E4
:2016C0001ED001F8F9CF0024E89457FF02C009D0689400F80BD010F80124089502D009D086
:2016E0000895509540954F5F5F4F0895E89417FF0895009510950F5F1F4F68940895352F58
:20170000242FE894452B11F468940895512F402F0027112780E1440F551F001F111F021B0A
:20172000130B416018F4020F131F4E7F8A9599F7089513D079F0002E112E415050400DD0CB
:2017400009F408954F935F93402D512D28D05F914F91F3CF01E0112708958827842B852BE2
:20176000089588EE93E00CD03197D9F708953197F1F70895689462F80895E89462F808951F
:20178000EF93FF93EE27E82BE92B31F0E0EDF7E03197F1F70197D1F7FF91EF9108950F92D6
:2017A000B801469F8001479F100D569F100D0F900895369A3699FECF369A3699FECF84B1AC
:2017C00095B1089533D0992711278F2D880F80E8F82A802F881F08F41FEF41F08F57082FA0
:2017E00007FD04C0003240F08FEF01C08827982FD82EE82EF82E09C08FE1801B082FF69433
:20180000E794D79497950A95D1F7112351F09095D094E094F09481E0980F8827D81EE81EA6
:20182000F81E0F2DFE2CED2CD92E0895D190E190F19001910895FF0C90E89027110F979567
:20184000F794092F0895102FBD2CDE2CEF2CF02E11234AF4B094D094E094F0949FEFB91A4A
:20186000D90AE90AF90A0EE1FF2039F4FE2CED2CDB2CBB240850C2F71CC032F00A95BB0CB6
:20188000DD1CEE1CFF1CF9CF01D0D5CFB7FE089590E8B91611F4D0FE08959FEFD91AE90A70
:2018A000F90A09F403950895DD92ED92FD920C930895DD24EE24FF24002711270895E1998E
:2018C000FECFEEBBFFBB3196089591E001C092E07B3751F47FB7F894F2DF8D918DBBE29A64
:2018E000E19A9A95C9F77FBF7727089591E001C092E0E5DFE09A8DB38D939A95D1F708952F
:20190000FFFFFFFFFFFFFFFFFFFFFFFFFFFFFFFFFFFFFFFFFFFFFFFFFFFFFFFFFFFFFFFFE7
:20192000FFFFFFFFFFFFFFFFFFFFFFFFFFFFFFFFFFFFFFFFFFFFFFFFFFFFFFFFFFFFFFFFC7
:20194000FFFFFFFFFFFFFFFFFFFFFFFFFFFFFFFFFFFFFFFFFFFFFFFFFFFFFFFFFFFFFFFFA7
:20196000FFFFFFFFFFFFFFFFFFFFFFFFFFFFFFFFFFFFFFFFFFFFFFFFFFFFFFFFFFFFFFFF87
:201FE000FFFFFFFFFFFFFFFFFFFFFFFFFFFFFFFFFFFFFFFFFFFFFFFFFFFFFFFFFFFFFFA15F
:00000001FF
